:1000000012C02CC02BC02AC029C028C027C026C0BF
:1000100025C024C023C022C021C020C01FC01EC0D4
:100020001DC01CC01BC011241FBECFE5D4E0DEBF25
:10003000CDBF11E0A0E6B0E0E6E3F4E002C0059039
:100040000D92AA36B107D9F721E0AAE6B1E001C0C6
:100050001D92A53AB207E1F78ED1EBC1D1CFBC0119
:1000600090918401492F50E02091830130E02F5F6F
:100070003F4F2F7033272417350759F0440F551F72
:10008000FA01EB57FE4F718360839F5F9F709093DF
:10009000840108959091830180918401981769F0FB
:1000A000E92FF0E0EE0FFF1FEB57FE4F208131816B
:1000B0009F5F9F709093830102C020E030E0C901F0
:1000C00008955D9BFECF8CB90895CF93DF93EC012B
:1000D0008991882311F0F5DFFBCFDF91CF9108954F
:1000E000CF93DF93CDB7DEB729970FB6F894DEBF75
:1000F0000FBECDBF29E0E0E6F1E0DE0111960190F0
:100100000D922A95E1F740E1BE016F5F7F4F5ED10E
:10011000CE010196DADF29960FB6F894DEBF0FBE46
:10012000CDBFDF91CF9108958DE0CBDF8AE0C9CFBD
:10013000FC0186EC88BB00C000C0000023B390B374
:100140009C7030E1939FC0011124922F9F73892BE3
:10015000808300C000C0000085EC88BB00C000C0E8
:10016000000023B390B39C7040E1949FC001112420
:10017000922F9F73892B818300C000C0000083EC05
:1001800088BB00C000C0000023B390B39C7030E176
:10019000939FC0011124922F9F73892B828300C0EB
:1001A00000C0000037EC38BB8CE682BB00C000C04A
:1001B000000023B390B39C7040E1949FC0011124D0
:1001C000922F9F73892B838300C000C000008CE5B1
:1001D00082BB00C000C0000023B390B39C7040E11C
:1001E000949FC0011124922F9F73892B848300C098
:1001F00000C000008CE382BB00C000C0000023B33D
:1002000090B39C7040E1949FC0011124922F9F7382
:10021000892B858300C000C000008CE782BB87E883
:1002200088BB00C000C0000023B390B39C7040E1C5
:10023000949FC0011124922F9F73892B868300C045
:1002400000C0000087E488BB00C000C0000023B3EA
:1002500090B39C7040E1949FC0011124922F9F7332
:10026000892B878300C000C0000038BB08958F929F
:100270009F92AF92BF92CF92DF92EF92FF920F9335
:100280001F93CF93DF938BE791E052DFCBE7D1E071
:1002900033E7E32E31E0F32E0BE611E09801B701CE
:1002A000FE0180E04191DB019D91BD019427D901C0
:1002B0009D939D0191118860B1E0E338FB0791F7B0
:1002C00080936A0183FF19C090917E0190FD03C065
:1002D000826080936A018091800186FD05C08091D3
:1002E0006A01826080936A0180917D0180FD05C072
:1002F00080916A01816080936A01C12CD12CF80140
:1003000091908F019920F9F08C2C880C880C880C26
:10031000AA24A394B12C892D8A2169F088818A218D
:1003200051F480916A0190E0982F88272B2D28297D
:100330002F5F822B94DEB394AA0CF8E0BF12EBCFB0
:100340008881D7018C93BFEFCB1ADB0A2196EFEFA0
:10035000EE1AFE0AF8E0CF16D10489F6DF91CF91AC
:100360001F910F91FF90EF90DF90CF90BF90AF90D3
:100370009F908F90089580EF81BB87EC87BB8FE3C0
:1003800085BB8CE082BB98E09AB989B910BC86E83D
:1003900080BD6DDF7FDEAC010097A1F09C013327AB
:1003A000220F331FF901E052FF4F8081882351F063
:1003B00051FF05C0F901E05AFF4F808102C050FD96
:1003C0008F717FDE88B3805888BBE3CFBB274A306C
:1003D00031F4992322F4BDE2909581959F4F01C09D
:1003E000BB27FB015527AA27880F991FAA1FA4170F
:1003F00010F0A41B83955051B9F7A05DAA3308F003
:10040000A95DA193009779F7B111B1931192CB0136
:1004100000C0DC01FC01672F71917723E1F732976F
:1004200004C07C916D9370836291AE17BF07C8F3CF
:060430000895F894FFCFCF
:1004360000000000210023002500260028003F00C0
:100446002B00000051004500540055004F000000ED
:100456007D0000004100440047004A004C005F0058
:10046600000000004000430042004D003E007B00BB
:100476007F0000005700240000002A000000220030
:100486007C007E00530052005E00490029000000F7
:1004960000005A005800460059004B00500000006A
:1004A600000000004E00560048003C003A000000E4
:1004B60000001B00310033003500370039002F00E3
:1004C6003D00090071006500740075006F000000B2
:1004D6005D0000006100640067006A006C002D008A
:1004E6000D0000003200630062006D002E005B000C
:1004F60008000000770034002000380000002700C4
:100506005C00600073007200360069003000000075
:1005160000007A007800660079006B007000000029
:10052600000000006E00760068002C003B00000012
:0A05360020202020202020200000BB
:00000001FF
